:020000040800F2
:10000000000002200D0A0008530A0008550A0008E3
:10001000570A0008590A00085B0A0008000000009F
:100020000000000000000000000000005D0A000861
:100030005F0A000800000000610A0008630A000867
:10004000670A0008690A00086B0A00086D0A0008C0
:100050006F0A0008710A0008730A0008750A000890
:10006000770A0008790A00087B0A00087D0A000860
:100070007F0A0008810A0008830A0008850A000830
:10008000870A0008890A00088B0A00088D0A000800
:100090008F0A0008910A0008930A0008950A0008D0
:1000A000970A0008990A00089B0A00089D0A0008A0
:1000B0009F0A0008A10A0008A30A0008A50A000870
:1000C000A70A0008A90A0008AB0A0008AD0A000840
:1000D000AF0A0008B10A0008B30A0008E1040008EA
:1000E000B70A0008B90A0008BB0A0008BD0A0008E0
:1000F000BF0A0008C10A0008C30A0008C50A0008B0
:10010000C70A0008C90A0008CB0A0008CD0A00087F
:10011000CF0A0008D10A0008D30A0008D50A00084F
:10012000D70A0008D90A0008DB0A0008DD0A00081F
:10013000DF0A0008E10A0008E30A0008E50A0008EF
:10014000E70A0008E90A0008EB0A0008ED0A0008BF
:10015000EF0A0008F10A0008F30A0008F50A00088F
:10016000F70A0008F90A0008FB0A0008FD0A00085F
:10017000FF0A0008010B0008030B0008050B00082C
:10018000070B0008090B000810B5054C237833B99C
:10019000044B13B10448AFF300800123237010BD5A
:1001A0008000002000000000B814000808B5064BCD
:1001B0001BB106480649AFF300800648036813B137
:1001C000054B03B1984708BD00000000B8140008B3
:1001D000840000208000002000000000154B002B50
:1001E00008BF134B9D46A3F5803A00218B460F466E
:1001F0001348144A121A01F045F90F4B002B00D096
:1002000098470E4B002B00D0984700200021040097
:100210000D000D48002802D00C48AFF3008001F01B
:100220000BF92000290000F0DDFB01F0F1F800BF20
:100230000000080000000220000000000000000094
:1002400080000020E000002000000000000000000E
:100250002DE9F00F5A4C5B4B226840F2D1701A60C6
:1002600004E0013880B2002800F0A1801A682168FB
:100270008A42C2EB010288BF2032032AF1D91A68F0
:10028000514F524E01321A601A68BA4222BF4D4A8B
:10029000A7F1200111601A6812781A6801321A60F9
:1002A0001A68BA4222BF4A49464A11601A6812784F
:1002B0001A6801321A601A68BA4222BF4449414A98
:1002C00011601A6892F800C01A6886F800C00132FE
:1002D0001A601A68BA4222BF3A4A3D4911601A6848
:1002E00015781B2D757098BF40F2D17004D95EE06F
:1002F000013880B200285AD01A6821688A42C2EBBD
:10030000010288BF20329542F2D81A6801321A6081
:100310001A68BA4222BF2B4A2D4911601A68A81EDA
:1003200092F800B02B4A86F802B0002882F800B09C
:1003300041DD0024DFF88CA025492246D3F8008057
:1003400008F10108C3F80080D3F800900132B945E4
:1003500028BFCAF80010D3F8009006EB0408D2B208
:1003600099F800908242144688F80390E6DB05EB8A
:100370000C0159440024C9B2224634190132E478F0
:10038000D2B209198242C9B21446F6DB1A680132A8
:100390001A601A68C843BA4222BF0D49094A11605F
:1003A0001B681B78C0B2C31A5842584100E00020B5
:1003B000BDE8F00F704705EB0C015944C9B2E5E701
:1003C0000400002000000020E0000020A000002029
:1003D000C00000209C00002001464FF4904008B56A
:1003E000C4F2000000F042FA4FF49040C4F2000062
:1003F000402100F05FFA0028F6D008BDF8B50746A6
:10040000FF2016460D461C46FFF7E6FFFF20FFF7CC
:10041000E3FF3846FFF7E0FFB01CC0B20237FFF73A
:10042000DBFF2846ED197519FFF7D6FFEDB266B16F
:10043000013E54FA86F601362078FFF7CDFF14F816
:10044000013BED18B442EDB2F6D1E843C0B2BDE8CD
:10045000F840FFF7C1BF00BFF0B5B1F5967F83B09C
:10046000044602D9002003B0F0BD084600F038FD74
:1004700012A3D3E9002300F099FD00F0A9FF0321A6
:1004800085B22E0A20460A4601AB1E278DF804705D
:100490008DF805508DF80660FFF7B0FFFFF7D8FE26
:1004A0000028DFD0044B1A78A242DBD19878D0F133
:1004B000010038BF0020D6E7A000002048E17A14F0
:1004C000AE470B40AFF3008040F20402C2F20002DC
:1004D00040F200031268C2F200031A60704700BFC6
:1004E0004FF4904008B5C4F2000040F2255100F0EE
:1004F000E7F900B908BD4FF49040C4F2000000F0E5
:10050000B9F9074B074A1968013119601968914216
:10051000C0B201D3203A1A601B68187008BD00BF32
:1005200004000020E000002030B4C3787BB90278DA
:100530004FF461435109CEF2000302F01F02203153
:10054000012000FA02F243F8212030BC70474FF43A
:100550006D43CEF200034578DA6884780378D2439D
:10056000C2F30222C2F10401C9B205FA01F10F255A
:1005700045FA02F2C9B222400A4303F1604303F58F
:1005800061431201D2B283F8002302784FF4614331
:100590005109CEF2000302F01F02012000FA02F21C
:1005A00043F82120D1E700BF00222DE9F0011346D6
:1005B0000126032703E001330232102B2CD00D68F3
:1005C00006FA03F42540A542F5D1D0F800C007FA99
:1005D00002F4E44304EA0C0CC0F800C091F804C033
:1005E000D0F800800CFA02FC4CEA080CC0F800C0FD
:1005F00091F804C00CF1FF3CBCF1010F0FD9C568A4
:100600002C40C460CC79C56804FA02F401332C4351
:100610000232102BC460D2D1BDE8F0017047D0F88F
:1006200008C004EA0C0CC0F808C091F805C0D0F866
:1006300008800CFA02FC4CEA080CC0F808C0D0F89C
:1006400004C02CEA0505456091F806C045680CFA1F
:1006500003FC1FFA8CFC4CEA05054560CFE700BFA0
:10066000CB08083301F0070130B4890050F823505B
:100670000F2404FA01F425EA040440F8234050F85A
:10068000234002FA01F2144340F8234030BC704783
:1006900010B44FF46053C4F202039A6802F00C02E3
:1006A000042A22D0082A26D04FF41052C0F2F402B5
:1006B00002604FF46053C4F2020320499C68C4F303
:1006C00003140C5D22FA04F242609C68C4F3822495
:1006D0000C5D22FA04F484609B68C3F34233CB5C64
:1006E00022FA03F2C26010BC70474FF49052C0F27D
:1006F0007A020260DDE75C68596814F4800F5C6878
:1007000015BF4FF490534FF41053C0F27A03C0F268
:10071000F40301F03F01B3FBF1F24FF46053C4F274
:100720000203C4F388145B68C3F30143013302FB83
:1007300004F25B00B2FBF3F20260BAE708000020AB
:100740004FF46053C4F202031A6B19B922EA000095
:100750001863704710431863704700BF4FF460532D
:10076000C4F202031A6C19B922EA00001864704737
:1007700010431864704700BF70B5038ACA8823F419
:1007800040531B041B0C1343038283898A8804464D
:1007900008890D4623F4B0534989024323F00C0322
:1007A0001B040A431B0C92B21343A381A38AAA8998
:1007B00023F440731B041B0C84B01343A3826846CC
:1007C000FFF766FF4FF4A0524FF48053C4F20103C9
:1007D000C4F201029C4218BF9442A2890CBF039B41
:1007E000029B12B2002A21DB286803EB830303EB90
:1007F00083038000B3FBF0F148F21F53A089C5F2D8
:10080000EB13A3FB0152520900B216016425002824
:1008100002FB151213DB12013232A3FB0253C3F3A6
:10082000431333439BB2238104B070BD2A6803EBAA
:10083000830303EB83035200B3FBF2F1DCE7D20046
:100840003232A3FB0213C3F342133343EAE700BF80
:10085000838929B923F400531B041B0C838170473F
:100860009BB243F400538381704700BFC905C90D93
:10087000818070478088C005C00D704701F01F035C
:1008800010B4C1F342110124A14204FA03F30DD0C4
:1008900002290DD014302AB9026822EA030303604A
:1008A00010BC7047026813430360F9E70C30F2E7AD
:1008B0001030F0E7038819420CBF00200120704778
:1008C000C1F3421310B401F01F020124012B04FAFA
:1008D00002F416D0022B0CBF028A828A92B2224006
:1008E00003880124090A04FA01F19BB219420CBFE2
:1008F00000200120002A0CBF002000F0010010BCE5
:100900007047828992B22240EAE700BF08B5022010
:100910000121FFF715FF4FF480200121BDE80840B9
:10092000FFF71CBF10B54FF48064C4F2020482B01C
:100930000A2107222046FFF793FE20460B210722BB
:10094000FFF78EFE02A902224FF4406341F8083DF2
:100950008DF8042000230322204669468DF80520E7
:100960008DF806308DF80730FFF71EFE02B010BD7F
:1009700070B54FF4904486B0FFF7A6FDC4F20004B2
:1009800000234FF4E1321E4602A92046ADF80C3098
:10099000ADF80E30ADF81030ADF814300C230292E3
:1009A000ADF81230FFF7E8FE01212046FFF750FFB7
:1009B0000125272301A88DF804308DF805608DF8F6
:1009C00006608DF80750FFF7AFFD204640F2255135
:1009D0002A46FFF753FF20462946FFF739FF06B0A6
:1009E00070BD00BF08B500F095F8FFF78FFFFFF767
:1009F00099FFFFF7BDFF00210B20FFF72DFD4FF4FE
:100A000096710B20FFF728FDF5E700BF0649074A5E
:100A1000074B9A42BEBF51F8040B42F8040BF8E7AB
:100A20000448804704480047C41400080000002020
:100A300080000020150B0008DD0100083349344A0E
:100A4000002301E041F8043B9142FBD3FFF7CAFFCA
:100A5000FEE7FEE7FEE7FEE7FEE7FEE7FEE7FEE76E
:100A6000FEE7FEE7FEE7FEE7FEE7FEE7FEE7FEE75E
:100A7000FEE7FEE7FEE7FEE7FEE7FEE7FEE7FEE74E
:100A8000FEE7FEE7FEE7FEE7FEE7FEE7FEE7FEE73E
:100A9000FEE7FEE7FEE7FEE7FEE7FEE7FEE7FEE72E
:100AA000FEE7FEE7FEE7FEE7FEE7FEE7FEE7FEE71E
:100AB000FEE7FEE7FEE7FEE7FEE7FEE7FEE7FEE70E
:100AC000FEE7FEE7FEE7FEE7FEE7FEE7FEE7FEE7FE
:100AD000FEE7FEE7FEE7FEE7FEE7FEE7FEE7FEE7EE
:100AE000FEE7FEE7FEE7FEE7FEE7FEE7FEE7FEE7DE
:100AF000FEE7FEE7FEE7FEE7FEE7FEE7FEE7FEE7CE
:100B0000FEE7FEE7FEE7FEE7FEE7000080000020CC
:100B1000E00000204FF46D42CEF200024FF460532B
:100B2000D2F88810C4F2020341F47001C2F88810B0
:100B30001968002241F0010119609A60186843F2B7
:100B4000100120F08470C2F2004120F4803018605F
:100B50005960196882B021F480211960DA6000922E
:100B600001921A6842F480321A601A4603E0009B30
:100B7000B3F5A04F09D0136803F400330193009B31
:100B800001330093019B002BF1D04FF46053C4F26A
:100B900002031B6813F4003308BF019301D0012343
:100BA0000193019B012B08D04FF46D43CEF200035B
:100BB0004FF000629A6002B070474FF46053C4F285
:100BC00002034FF4E042196CC4F2000241F080517C
:100BD0001964116841F4404111609A689A609A68FA
:100BE00042F400429A60996842F6042241F4A0510E
:100BF000C0F2407299605A601A6842F080721A60BE
:100C000019460A684FF460539201C4F20203F8D502
:100C10004FF47052C4F2020240F2057111609A68FA
:100C200022F003029A609A6842F002029A609A687F
:100C300002F00C02082AFAD1B6E700BF81F00041A9
:100C400002E000BF83F0004330B54FEA41044FEAB1
:100C5000430594EA050F08BF90EA020F1FBF54EA4C
:100C6000000C55EA020C7FEA645C7FEA655C00F0E8
:100C7000E2804FEA5454D4EB5555B8BF6D420CDDB9
:100C80002C4480EA020281EA030382EA000083EA3C
:100C9000010180EA020281EA0303362D88BF30BDDC
:100CA00011F0004F4FEA01314FF4801C4CEA113132
:100CB00002D0404261EB410113F0004F4FEA033391
:100CC0004CEA133302D0524263EB430394EA050F1C
:100CD00000F0A780A4F10104D5F1200E0DDB02FA8B
:100CE0000EFC22FA05F2801841F1000103FA0EF21F
:100CF000801843FA05F359410EE0A5F120050EF1E5
:100D0000200E012A03FA0EFC28BF4CF0020C43FA15
:100D100005F3C01851EBE37101F0004507D54FF022
:100D2000000EDCF1000C7EEB00006EEB0101B1F572
:100D3000801F1BD3B1F5001F0CD349085FEA3000B8
:100D40004FEA3C0C04F101044FEA445212F5800FC3
:100D500080F09A80BCF1004F08BF5FEA500C50F160
:100D6000000041EB045141EA050130BD5FEA4C0C43
:100D7000404141EB010111F4801FA4F10104E9D1CC
:100D800091F0000F04BF01460020B1FA81F308BFC3
:100D90002033A3F10B03B3F120020CDA0C3208DD8F
:100DA00002F1140CC2F10C0201FA0CF021FA02F16A
:100DB0000CE002F11402D8BFC2F1200C01FA02F1DA
:100DC00020FA0CFCDCBF41EA0C019040E41AA2BFFF
:100DD00001EB0451294330BD6FEA04041F3C1CDAC7
:100DE0000C340EDC04F11404C4F1200220FA04F0E7
:100DF00001FA02F340EA030021FA04F345EA030191
:100E000030BDC4F10C04C4F1200220FA02F001FA52
:100E100004F340EA0300294630BD21FA04F02946D4
:100E200030BD94F0000F83F4801306BF81F480116D
:100E30000134013D4EE77FEA645C18BF7FEA655CE0
:100E400029D094EA050F08BF90EA020F05D054EAB2
:100E5000000C04BF1946104630BD91EA030F1EBFB7
:100E60000021002030BD5FEA545C05D140004941BB
:100E700028BF41F0004130BD14F580043CBF01F5AE
:100E8000801130BD01F0004545F0FE4141F4700194
:100E90004FF0000030BD7FEA645C1ABF194610466F
:100EA0007FEA655C1CBF0B46024650EA013406BF70
:100EB00052EA033591EA030F41F4002130BD00BF2F
:100EC00090F0000F04BF0021704730B54FF48064EC
:100ED00004F132044FF000054FF0000150E700BF6D
:100EE00090F0000F04BF0021704730B54FF48064CC
:100EF00004F1320410F0004548BF40424FF00001B9
:100F00003EE700BF42004FEAE2014FEA31014FEAFB
:100F100002701FBF12F07F4393F07F4F81F060514A
:100F2000704792F0000F14BF93F07F4F704730B5B9
:100F30004FF4607401F0004521F0004120E700BF4C
:100F400050EA010208BF704730B54FF000050AE0D3
:100F500050EA010208BF704730B511F0004502D5D4
:100F6000404261EB41014FF4806404F132045FEAD6
:100F7000915C3FF4DCAE4FF003025FEADC0C18BF7B
:100F800003325FEADC0C18BF033202EBDC02C2F171
:100F9000200300FA03FC20FA02F001FA03FE40EA03
:100FA0000E0021FA02F11444C1E600BF70B54FF003
:100FB000FF0C4CF4E06C1CEA11541DBF1CEA1355E5
:100FC00094EA0C0F95EA0C0F00F0DEF82C4481EA4D
:100FD000030621EA4C5123EA4C5350EA013518BF6D
:100FE00052EA033541F4801143F4801338D0A0FB5A
:100FF00002CE4FF00005E1FB02E506F00042E0FB07
:1010000003E54FF00006E1FB03569CF0000F18BF0C
:101010004EF0010EA4F1FF04B6F5007F64F54074B4
:1010200004D25FEA4E0E6D4146EB060642EAC62147
:1010300041EA55514FEAC52040EA5E504FEACE2EB4
:10104000B4F1FD0C88BFBCF5E06F1ED8BEF1004FB7
:1010500008BF5FEA500E50F1000041EB045170BD33
:1010600006F0004646EA010140EA020081EA030177
:10107000B4EB5C04C2BFD4EB0C0541EA045170BD73
:1010800041F480114FF0000E013C00F3AB8014F1ED
:10109000360FDEBF002001F0004170BDC4F1000436
:1010A000203C35DA0C341BDC04F11404C4F12005B7
:1010B00000FA05F320FA04F001FA05F240EA020012
:1010C00001F0004221F0004110EBD37021FA04F648
:1010D00042EB06015EEA430E08BF20EAD37070BD02
:1010E000C4F10C04C4F1200500FA04F320FA05F061
:1010F00001FA04F240EA020001F0004110EBD37063
:1011000041F100015EEA430E08BF20EAD37070BDD2
:10111000C4F1200500FA05F24EEA020E20FA04F3AB
:1011200001FA05F243EA020321FA04F001F000415A
:1011300021FA04F220EA020000EBD3705EEA430ECB
:1011400008BF20EAD37070BD94F0000F0FD101F0FA
:101150000046400041EB010111F4801F08BF013C33
:10116000F7D041EA060195F0000F18BF704703F071
:101170000046520043EB030313F4801F08BF013DF8
:10118000F7D043EA0603704794EA0C0F0CEA1355B4
:1011900018BF95EA0C0F0CD050EA410618BF52EA6E
:1011A0004306D1D181EA030101F000414FF0000074
:1011B00070BD50EA410606BF1046194652EA430682
:1011C00019D094EA0C0F02D150EA013613D195EAF6
:1011D0000C0F05D152EA03361CBF104619460AD13E
:1011E00081EA030101F0004141F0FE4141F4700148
:1011F0004FF0000070BD41F0FE4141F4780170BD38
:1012000070B54FF0FF0C4CF4E06C1CEA11541DBF9C
:101210001CEA135594EA0C0F95EA0C0F00F0A7F89E
:10122000A4EB050481EA030E52EA03354FEA0131CB
:1012300000F088804FEA03334FF0805545EA1313DE
:1012400043EA12634FEA022245EA111545EA1065A6
:101250004FEA00260EF000419D4208BF964244F13D
:10126000FD0404F5407402D25B084FEA3202B61A5C
:1012700065EB03055B084FEA32024FF480104FF430
:10128000002CB6EB020E75EB030E22BFB61A7546A4
:1012900040EA0C005B084FEA3202B6EB020E75EB37
:1012A000030E22BFB61A754640EA5C005B084FEA9F
:1012B0003202B6EB020E75EB030E22BFB61A75466C
:1012C00040EA9C005B084FEA3202B6EB020E75EB77
:1012D000030E22BFB61A754640EADC0055EA060E38
:1012E00018D04FEA051545EA16754FEA06164FEA7B
:1012F000C30343EA52734FEAC2025FEA1C1CC0D127
:1013000011F4801F0BD141EA00014FF000004FF0B3
:10131000004CB6E711F4801F04BF01430020B4F174
:10132000FD0C88BFBCF5E06F3FF6AFAEB5EB030C2C
:1013300004BFB6EB020C5FEA500C50F1000041EB29
:10134000045170BD0EF0004E4EEA113114EB5C04F6
:10135000C2BFD4EB0C0541EA045170BD41F48011C9
:101360004FF0000E013C90E645EA060E8DE60CEAD1
:10137000135594EA0C0F08BF95EA0C0F3FF43BAFEE
:1013800094EA0C0F0AD150EA01347FF434AF95EAA5
:101390000C0F7FF425AF104619462CE795EA0C0F89
:1013A00006D152EA03353FF4FDAE1046194622E756
:1013B00050EA410618BF52EA43067FF4C5AE50EA30
:1013C00041047FF40DAF52EA43057FF4EBAE12E720
:1013D0004A0011D212F5001211D20DD56FF47873B4
:1013E000B3EB62520ED44FEAC12343F0004343EA09
:1013F000505323FA02F070474FF00000704750EA54
:10140000013002D14FF0FF3070474FF000007047BD
:1014100008B5074B044613B10021AFF30080054B1C
:101420001868836A03B19847204600F033F800BF7C
:1014300000000000B414000870B50E4B0E4DED1AFC
:10144000AD1000241E4603E056F8242090470134D6
:10145000AC42F9D100F020F8084D094BED1AAD105F
:1014600000241E4603E056F8242090470134AC4285
:10147000F9D170BD78000020780000207C000020A9
:10148000780000208218034601E003F8011B934214
:10149000FBD17047FEE700BFF8B500BFF8BC08BC41
:1014A0009E467047F8B500BFF8BC08BC9E46704722
:0C14B000430000001800002000000000B5
:0814BC0020EDFF7F010000009C
:1014C400C0000020C000002000000000010203044E
:1014D40001020304060708090000000000000000E0
:1014E40000000000000000000000000000000000F8
:1014F4000000000000000000B0140008000000001C
:1015040000000000000000000000000000000000D7
:1015140000000000000000000000000000000000C7
:1015240000000000000000000000000000000000B7
:101534000000000000000000AD010008890100085F
:0400000508000000EF
:00000001FF
